{
  "contractName": "VoteSystem",
  "abi": [
    {
      "inputs": [],
      "stateMutability": "nonpayable",
      "type": "constructor"
    },
    {
      "inputs": [
        {
          "internalType": "string",
          "name": "reason",
          "type": "string"
        }
      ],
      "name": "ProposalError",
      "type": "error"
    },
    {
      "inputs": [
        {
          "internalType": "string",
          "name": "reason",
          "type": "string"
        }
      ],
      "name": "RegisterError",
      "type": "error"
    },
    {
      "inputs": [
        {
          "internalType": "string",
          "name": "reason",
          "type": "string"
        }
      ],
      "name": "VoteError",
      "type": "error"
    },
    {
      "inputs": [
        {
          "internalType": "string",
          "name": "reason",
          "type": "string"
        }
      ],
      "name": "WhitelistError",
      "type": "error"
    },
    {
      "anonymous": false,
      "inputs": [
        {
          "indexed": true,
          "internalType": "uint256",
          "name": "applyId",
          "type": "uint256"
        },
        {
          "indexed": true,
          "internalType": "address",
          "name": "applicant",
          "type": "address"
        },
        {
          "indexed": false,
          "internalType": "enum VoteSystem.ApplyStatus",
          "name": "status",
          "type": "uint8"
        },
        {
          "indexed": false,
          "internalType": "uint256",
          "name": "auditTime",
          "type": "uint256"
        }
      ],
      "name": "RegisterApplyAudited",
      "type": "event"
    },
    {
      "anonymous": false,
      "inputs": [
        {
          "indexed": true,
          "internalType": "uint256",
          "name": "applyId",
          "type": "uint256"
        },
        {
          "indexed": true,
          "internalType": "address",
          "name": "applicant",
          "type": "address"
        },
        {
          "indexed": false,
          "internalType": "uint256",
          "name": "applyTime",
          "type": "uint256"
        }
      ],
      "name": "RegisterApplySubmitted",
      "type": "event"
    },
    {
      "inputs": [
        {
          "internalType": "address",
          "name": "",
          "type": "address"
        }
      ],
      "name": "addressToApplyId",
      "outputs": [
        {
          "internalType": "uint256",
          "name": "",
          "type": "uint256"
        }
      ],
      "stateMutability": "view",
      "type": "function"
    },
    {
      "inputs": [],
      "name": "admin",
      "outputs": [
        {
          "internalType": "address",
          "name": "",
          "type": "address"
        }
      ],
      "stateMutability": "view",
      "type": "function"
    },
    {
      "inputs": [
        {
          "internalType": "uint256",
          "name": "",
          "type": "uint256"
        },
        {
          "internalType": "address",
          "name": "",
          "type": "address"
        }
      ],
      "name": "hasVoted",
      "outputs": [
        {
          "internalType": "bool",
          "name": "",
          "type": "bool"
        }
      ],
      "stateMutability": "view",
      "type": "function"
    },
    {
      "inputs": [
        {
          "internalType": "uint256",
          "name": "",
          "type": "uint256"
        },
        {
          "internalType": "uint256",
          "name": "",
          "type": "uint256"
        }
      ],
      "name": "optionVoteCounts",
      "outputs": [
        {
          "internalType": "uint256",
          "name": "",
          "type": "uint256"
        }
      ],
      "stateMutability": "view",
      "type": "function"
    },
    {
      "inputs": [],
      "name": "proposalCount",
      "outputs": [
        {
          "internalType": "uint256",
          "name": "",
          "type": "uint256"
        }
      ],
      "stateMutability": "view",
      "type": "function"
    },
    {
      "inputs": [
        {
          "internalType": "uint256",
          "name": "",
          "type": "uint256"
        }
      ],
      "name": "proposals",
      "outputs": [
        {
          "internalType": "string",
          "name": "title",
          "type": "string"
        },
        {
          "internalType": "uint256",
          "name": "startTime",
          "type": "uint256"
        },
        {
          "internalType": "uint256",
          "name": "endTime",
          "type": "uint256"
        },
        {
          "internalType": "bool",
          "name": "isActive",
          "type": "bool"
        }
      ],
      "stateMutability": "view",
      "type": "function"
    },
    {
      "inputs": [
        {
          "internalType": "uint256",
          "name": "",
          "type": "uint256"
        }
      ],
      "name": "registerApplies",
      "outputs": [
        {
          "internalType": "address",
          "name": "applicantAddress",
          "type": "address"
        },
        {
          "internalType": "uint256",
          "name": "applyTime",
          "type": "uint256"
        },
        {
          "internalType": "enum VoteSystem.ApplyStatus",
          "name": "status",
          "type": "uint8"
        },
        {
          "internalType": "uint256",
          "name": "auditTime",
          "type": "uint256"
        }
      ],
      "stateMutability": "view",
      "type": "function"
    },
    {
      "inputs": [],
      "name": "registerApplyCount",
      "outputs": [
        {
          "internalType": "uint256",
          "name": "",
          "type": "uint256"
        }
      ],
      "stateMutability": "view",
      "type": "function"
    },
    {
      "inputs": [
        {
          "internalType": "address",
          "name": "",
          "type": "address"
        }
      ],
      "name": "voterWhitelist",
      "outputs": [
        {
          "internalType": "bool",
          "name": "",
          "type": "bool"
        }
      ],
      "stateMutability": "view",
      "type": "function"
    },
    {
      "inputs": [
        {
          "internalType": "address",
          "name": "_voter",
          "type": "address"
        }
      ],
      "name": "addVoterToWhitelist",
      "outputs": [],
      "stateMutability": "nonpayable",
      "type": "function"
    },
    {
      "inputs": [
        {
          "internalType": "string",
          "name": "_title",
          "type": "string"
        },
        {
          "internalType": "string[]",
          "name": "_options",
          "type": "string[]"
        },
        {
          "internalType": "uint256",
          "name": "_startTime",
          "type": "uint256"
        },
        {
          "internalType": "uint256",
          "name": "_endTime",
          "type": "uint256"
        }
      ],
      "name": "createVotingProposal",
      "outputs": [],
      "stateMutability": "nonpayable",
      "type": "function"
    },
    {
      "inputs": [
        {
          "internalType": "uint256",
          "name": "_proposalId",
          "type": "uint256"
        },
        {
          "internalType": "uint256",
          "name": "_optionId",
          "type": "uint256"
        }
      ],
      "name": "castVote",
      "outputs": [],
      "stateMutability": "nonpayable",
      "type": "function"
    },
    {
      "inputs": [
        {
          "internalType": "uint256",
          "name": "_proposalId",
          "type": "uint256"
        }
      ],
      "name": "getProposalOptions",
      "outputs": [
        {
          "internalType": "string[]",
          "name": "",
          "type": "string[]"
        }
      ],
      "stateMutability": "view",
      "type": "function"
    },
    {
      "inputs": [
        {
          "internalType": "uint256",
          "name": "_proposalId",
          "type": "uint256"
        },
        {
          "internalType": "uint256",
          "name": "_optionId",
          "type": "uint256"
        }
      ],
      "name": "getOptionVoteCount",
      "outputs": [
        {
          "internalType": "uint256",
          "name": "",
          "type": "uint256"
        }
      ],
      "stateMutability": "view",
      "type": "function"
    },
    {
      "inputs": [
        {
          "internalType": "uint256",
          "name": "_proposalId",
          "type": "uint256"
        }
      ],
      "name": "getProposalWinner",
      "outputs": [
        {
          "internalType": "string",
          "name": "",
          "type": "string"
        },
        {
          "internalType": "uint256",
          "name": "",
          "type": "uint256"
        }
      ],
      "stateMutability": "view",
      "type": "function"
    },
    {
      "inputs": [],
      "name": "submitRegisterApply",
      "outputs": [],
      "stateMutability": "nonpayable",
      "type": "function"
    },
    {
      "inputs": [
        {
          "internalType": "uint256",
          "name": "_applyId",
          "type": "uint256"
        },
        {
          "internalType": "bool",
          "name": "_approve",
          "type": "bool"
        }
      ],
      "name": "auditRegisterApply",
      "outputs": [],
      "stateMutability": "nonpayable",
      "type": "function"
    },
    {
      "inputs": [],
      "name": "getAllRegisterApplyIds",
      "outputs": [
        {
          "internalType": "uint256[]",
          "name": "",
          "type": "uint256[]"
        }
      ],
      "stateMutability": "view",
      "type": "function"
    },
    {
      "inputs": [
        {
          "internalType": "address",
          "name": "_user",
          "type": "address"
        }
      ],
      "name": "getUserApplyId",
      "outputs": [
        {
          "internalType": "uint256",
          "name": "",
          "type": "uint256"
        },
        {
          "internalType": "bool",
          "name": "",
          "type": "bool"
        }
      ],
      "stateMutability": "view",
      "type": "function"
    },
    {
      "inputs": [
        {
          "internalType": "uint256[]",
          "name": "_applyIds",
          "type": "uint256[]"
        }
      ],
      "name": "getRegisterApplies",
      "outputs": [
        {
          "internalType": "address[]",
          "name": "applicants",
          "type": "address[]"
        },
        {
          "internalType": "uint256[]",
          "name": "applyTimes",
          "type": "uint256[]"
        },
        {
          "internalType": "enum VoteSystem.ApplyStatus[]",
          "name": "statuses",
          "type": "uint8[]"
        },
        {
          "internalType": "uint256[]",
          "name": "auditTimes",
          "type": "uint256[]"
        }
      ],
      "stateMutability": "view",
      "type": "function"
    }
  ],
  "bytecode": "0x60a060405234801561001057600080fd5b503373ffffffffffffffffffffffffffffffffffffffff1660808173ffffffffffffffffffffffffffffffffffffffff168152505060805161361d61007560003960008181610fff015281816116440152818161191b0152611b0b015261361d6000f3fe608060405234801561001057600080fd5b506004361061012c5760003560e01c80638549e0da116100ad578063da35c66411610071578063da35c66414610398578063dc0b082a146103b6578063f04876f8146103d2578063f851a440146103f0578063f8d92a691461040e5761012c565b80638549e0da146102cd578063a1bd71b9146102eb578063ad202a361461031b578063cb8d4eff1461034c578063cbd8d2e2146103685761012c565b80635313a856116100f45780635313a8561461021657806363e9a61d146102465780636445b5de146102765780636faa0f5114610280578063773a16031461029c5761012c565b8063013cf08b14610131578063085089ef146101645780632c0a3f89146101975780632d786911146101b357806343859632146101e6575b600080fd5b61014b60048036038101906101469190611c71565b61043e565b60405161015b9493929190611d58565b60405180910390f35b61017e60048036038101906101799190611c71565b610503565b60405161018e9493929190611e5c565b60405180910390f35b6101b160048036038101906101ac9190611ea1565b610560565b005b6101cd60048036038101906101c89190611f46565b61087b565b6040516101dd94939291906121cd565b60405180910390f35b61020060048036038101906101fb919061225a565b610b44565b60405161020d919061229a565b60405180910390f35b610230600480360381019061022b9190611ea1565b610b73565b60405161023d91906122b5565b60405180910390f35b610260600480360381019061025b9190611ea1565b610b98565b60405161026d91906122b5565b60405180910390f35b61027e610c66565b005b61029a600480360381019061029591906122fc565b610ffd565b005b6102b660048036038101906102b19190611c71565b6112d3565b6040516102c492919061233c565b60405180910390f35b6102d5611493565b6040516102e291906122b5565b60405180910390f35b61030560048036038101906103009190611c71565b611499565b6040516103129190612478565b60405180910390f35b6103356004803603810190610330919061249a565b6115cc565b6040516103439291906124c7565b60405180910390f35b6103666004803603810190610361919061259c565b611642565b005b610382600480360381019061037d919061249a565b6118fb565b60405161038f91906122b5565b60405180910390f35b6103a0611913565b6040516103ad91906122b5565b60405180910390f35b6103d060048036038101906103cb919061249a565b611919565b005b6103da611a70565b6040516103e79190612643565b60405180910390f35b6103f8611b09565b6040516104059190612665565b60405180910390f35b6104286004803603810190610423919061249a565b611b2d565b604051610435919061229a565b60405180910390f35b6001602052806000526040600020600091509050806000018054610461906126af565b80601f016020809104026020016040519081016040528092919081815260200182805461048d906126af565b80156104da5780601f106104af576101008083540402835291602001916104da565b820191906000526020600020905b8154815290600101906020018083116104bd57829003601f168201915b5050505050908060020154908060030154908060040160009054906101000a900460ff16905084565b60056020528060005260406000206000915090508060000160009054906101000a900473ffffffffffffffffffffffffffffffffffffffff16908060010154908060020160009054906101000a900460ff16908060030154905084565b60025482106105a4576040517f8d18bb5e00000000000000000000000000000000000000000000000000000000815260040161059b9061272c565b60405180910390fd5b60006001600084815260200190815260200160002090508060040160009054906101000a900460ff1661060c576040517f8d18bb5e00000000000000000000000000000000000000000000000000000000815260040161060390612798565b60405180910390fd5b6000803373ffffffffffffffffffffffffffffffffffffffff1673ffffffffffffffffffffffffffffffffffffffff16815260200190815260200160002060009054906101000a900460ff16610697576040517f8d18bb5e00000000000000000000000000000000000000000000000000000000815260040161068e9061282a565b60405180910390fd5b80600201544210806106ac5750806003015442115b156106ec576040517f8d18bb5e0000000000000000000000000000000000000000000000000000000081526004016106e390612896565b60405180910390fd5b80600101805490508210610735576040517f8d18bb5e00000000000000000000000000000000000000000000000000000000815260040161072c90612902565b60405180910390fd5b6003600084815260200190815260200160002060003373ffffffffffffffffffffffffffffffffffffffff1673ffffffffffffffffffffffffffffffffffffffff16815260200190815260200160002060009054906101000a900460ff16156107d3576040517f8d18bb5e0000000000000000000000000000000000000000000000000000000081526004016107ca90612994565b60405180910390fd5b60016003600085815260200190815260200160002060003373ffffffffffffffffffffffffffffffffffffffff1673ffffffffffffffffffffffffffffffffffffffff16815260200190815260200160002060006101000a81548160ff0219169083151502179055506004600084815260200190815260200160002060008381526020019081526020016000206000815480929190610871906129e3565b9190505550505050565b60608060608060008686905090508067ffffffffffffffff8111156108a3576108a2612a2b565b5b6040519080825280602002602001820160405280156108d15781602001602082028036833780820191505090505b5094508067ffffffffffffffff8111156108ee576108ed612a2b565b5b60405190808252806020026020018201604052801561091c5781602001602082028036833780820191505090505b5093508067ffffffffffffffff81111561093957610938612a2b565b5b6040519080825280602002602001820160405280156109675781602001602082028036833780820191505090505b5092508067ffffffffffffffff81111561098457610983612a2b565b5b6040519080825280602002602001820160405280156109b25781602001602082028036833780820191505090505b50915060005b81811015610b39576006548888838181106109d6576109d5612a5a565b5b905060200201351015610b26576000600560008a8a858181106109fc576109fb612a5a565b5b90506020020135815260200190815260200160002090508060000160009054906101000a900473ffffffffffffffffffffffffffffffffffffffff16878381518110610a4b57610a4a612a5a565b5b602002602001019073ffffffffffffffffffffffffffffffffffffffff16908173ffffffffffffffffffffffffffffffffffffffff16815250508060010154868381518110610a9d57610a9c612a5a565b5b6020026020010181815250508060020160009054906101000a900460ff16858381518110610ace57610acd612a5a565b5b60200260200101906002811115610ae857610ae7611de5565b5b90816002811115610afc57610afb611de5565b5b815250508060030154848381518110610b1857610b17612a5a565b5b602002602001018181525050505b8080610b31906129e3565b9150506109b8565b505092959194509250565b60036020528160005260406000206020528060005260406000206000915091509054906101000a900460ff1681565b6004602052816000526040600020602052806000526040600020600091509150505481565b60006002548310610bde576040517f8d18bb5e000000000000000000000000000000000000000000000000000000008152600401610bd59061272c565b60405180910390fd5b60016000848152602001908152602001600020600101805490508210610c39576040517f8d18bb5e000000000000000000000000000000000000000000000000000000008152600401610c3090612ad5565b60405180910390fd5b60046000848152602001908152602001600020600083815260200190815260200160002054905092915050565b6000339050600073ffffffffffffffffffffffffffffffffffffffff168173ffffffffffffffffffffffffffffffffffffffff1603610cda576040517fc4c97f16000000000000000000000000000000000000000000000000000000008152600401610cd190612b41565b60405180910390fd5b6000808273ffffffffffffffffffffffffffffffffffffffff1673ffffffffffffffffffffffffffffffffffffffff16815260200190815260200160002060009054906101000a900460ff1615610d66576040517fc4c97f16000000000000000000000000000000000000000000000000000000008152600401610d5d90612bd3565b60405180910390fd5b6000600760008373ffffffffffffffffffffffffffffffffffffffff1673ffffffffffffffffffffffffffffffffffffffff1681526020019081526020016000205490506000811115610e5057600060056000600184610dc69190612bf3565b8152602001908152602001600020905060006002811115610dea57610de9611de5565b5b8160020160009054906101000a900460ff166002811115610e0e57610e0d611de5565b5b03610e4e576040517fc4c97f16000000000000000000000000000000000000000000000000000000008152600401610e4590612c99565b60405180910390fd5b505b60405180608001604052808373ffffffffffffffffffffffffffffffffffffffff16815260200142815260200160006002811115610e9157610e90611de5565b5b8152602001600081525060056000600654815260200190815260200160002060008201518160000160006101000a81548173ffffffffffffffffffffffffffffffffffffffff021916908373ffffffffffffffffffffffffffffffffffffffff1602179055506020820151816001015560408201518160020160006101000a81548160ff02191690836002811115610f2c57610f2b611de5565b5b0217905550606082015181600301559050506001600654610f4d9190612cb9565b600760008473ffffffffffffffffffffffffffffffffffffffff1673ffffffffffffffffffffffffffffffffffffffff168152602001908152602001600020819055508173ffffffffffffffffffffffffffffffffffffffff166006547f3322422aa1ed3dcdc3c34bc1037828c89ea4e7a1b4e8bb718038d49d700f6a8742604051610fd991906122b5565b60405180910390a360066000815480929190610ff4906129e3565b91905055505050565b7f000000000000000000000000000000000000000000000000000000000000000073ffffffffffffffffffffffffffffffffffffffff163373ffffffffffffffffffffffffffffffffffffffff161461108b576040517fb07214e000000000000000000000000000000000000000000000000000000000815260040161108290612d5f565b60405180910390fd5b60065482106110cf576040517fc4c97f160000000000000000000000000000000000000000000000000000000081526004016110c690612dcb565b60405180910390fd5b6000600560008481526020019081526020016000209050600060028111156110fa576110f9611de5565b5b8160020160009054906101000a900460ff16600281111561111e5761111d611de5565b5b1461115e576040517fc4c97f1600000000000000000000000000000000000000000000000000000000815260040161115590612e5d565b60405180910390fd5b81156112115760018160020160006101000a81548160ff0219169083600281111561118c5761118b611de5565b5b021790555060016000808360000160009054906101000a900473ffffffffffffffffffffffffffffffffffffffff1673ffffffffffffffffffffffffffffffffffffffff1673ffffffffffffffffffffffffffffffffffffffff16815260200190815260200160002060006101000a81548160ff02191690831515021790555061123f565b60028160020160006101000a81548160ff0219169083600281111561123957611238611de5565b5b02179055505b4281600301819055508060000160009054906101000a900473ffffffffffffffffffffffffffffffffffffffff1673ffffffffffffffffffffffffffffffffffffffff16837f96151b76cb0dadd29f65de26e2daa1350a58419140a6b4ae23077157528f251c8360020160009054906101000a900460ff16426040516112c6929190612e7d565b60405180910390a3505050565b60606000600254831061131b576040517f8d18bb5e0000000000000000000000000000000000000000000000000000000081526004016113129061272c565b60405180910390fd5b600060016000858152602001908152602001600020905080600301544211611378576040517f8d18bb5e00000000000000000000000000000000000000000000000000000000815260040161136f90612f18565b60405180910390fd5b60008060005b83600101805490508110156113d9576000600460008981526020019081526020016000206000838152602001908152602001600020549050838111156113c5578093508192505b5080806113d1906129e3565b91505061137e565b508260010181815481106113f0576113ef612a5a565b5b9060005260206000200182818054611407906126af565b80601f0160208091040260200160405190810160405280929190818152602001828054611433906126af565b80156114805780601f1061145557610100808354040283529160200191611480565b820191906000526020600020905b81548152906001019060200180831161146357829003601f168201915b5050505050915094509450505050915091565b60065481565b606060025482106114df576040517f8d18bb5e0000000000000000000000000000000000000000000000000000000081526004016114d69061272c565b60405180910390fd5b60016000838152602001908152602001600020600101805480602002602001604051908101604052809291908181526020016000905b828210156115c1578382906000526020600020018054611534906126af565b80601f0160208091040260200160405190810160405280929190818152602001828054611560906126af565b80156115ad5780601f10611582576101008083540402835291602001916115ad565b820191906000526020600020905b81548152906001019060200180831161159057829003601f168201915b505050505081526020019060010190611515565b505050509050919050565b6000806000600760008573ffffffffffffffffffffffffffffffffffffffff1673ffffffffffffffffffffffffffffffffffffffff1681526020019081526020016000205490506000810361162857600080925092505061163d565b6001816116359190612bf3565b600192509250505b915091565b7f000000000000000000000000000000000000000000000000000000000000000073ffffffffffffffffffffffffffffffffffffffff163373ffffffffffffffffffffffffffffffffffffffff16146116d0576040517fb07214e00000000000000000000000000000000000000000000000000000000081526004016116c790612d5f565b60405180910390fd5b6002848490501015611717576040517fb07214e000000000000000000000000000000000000000000000000000000000815260040161170e90612f84565b60405180910390fd5b808210611759576040517fb07214e000000000000000000000000000000000000000000000000000000000815260040161175090613016565b60405180910390fd5b4282101561179c576040517fb07214e0000000000000000000000000000000000000000000000000000000008152600401611793906130a8565b60405180910390fd5b600086869050036117e2576040517fb07214e00000000000000000000000000000000000000000000000000000000081526004016117d990613114565b60405180910390fd5b6040518060a0016040528087878080601f016020809104026020016040519081016040528093929190818152602001838380828437600081840152601f19601f82011690508083019250505050505050815260200185859061184491906132e8565b815260200183815260200182815260200160011515815250600160006002548152602001908152602001600020600082015181600001908161188691906134a9565b5060208201518160010190805190602001906118a3929190611b4d565b50604082015181600201556060820151816003015560808201518160040160006101000a81548160ff021916908315150217905550905050600260008154809291906118ee906129e3565b9190505550505050505050565b60076020528060005260406000206000915090505481565b60025481565b7f000000000000000000000000000000000000000000000000000000000000000073ffffffffffffffffffffffffffffffffffffffff163373ffffffffffffffffffffffffffffffffffffffff16146119a7576040517fb07214e000000000000000000000000000000000000000000000000000000000815260040161199e90612d5f565b60405180910390fd5b600073ffffffffffffffffffffffffffffffffffffffff168173ffffffffffffffffffffffffffffffffffffffff1603611a16576040517f5a0b89fa000000000000000000000000000000000000000000000000000000008152600401611a0d906135c7565b60405180910390fd5b60016000808373ffffffffffffffffffffffffffffffffffffffff1673ffffffffffffffffffffffffffffffffffffffff16815260200190815260200160002060006101000a81548160ff02191690831515021790555050565b6060600060065467ffffffffffffffff811115611a9057611a8f612a2b565b5b604051908082528060200260200182016040528015611abe5781602001602082028036833780820191505090505b50905060005b600654811015611b015780828281518110611ae257611ae1612a5a565b5b6020026020010181815250508080611af9906129e3565b915050611ac4565b508091505090565b7f000000000000000000000000000000000000000000000000000000000000000081565b60006020528060005260406000206000915054906101000a900460ff1681565b828054828255906000526020600020908101928215611b95579160200282015b82811115611b94578251829081611b8491906134a9565b5091602001919060010190611b6d565b5b509050611ba29190611ba6565b5090565b5b80821115611bc65760008181611bbd9190611bca565b50600101611ba7565b5090565b508054611bd6906126af565b6000825580601f10611be85750611c07565b601f016020900490600052602060002090810190611c069190611c0a565b5b50565b5b80821115611c23576000816000905550600101611c0b565b5090565b6000604051905090565b600080fd5b600080fd5b6000819050919050565b611c4e81611c3b565b8114611c5957600080fd5b50565b600081359050611c6b81611c45565b92915050565b600060208284031215611c8757611c86611c31565b5b6000611c9584828501611c5c565b91505092915050565b600081519050919050565b600082825260208201905092915050565b60005b83811015611cd8578082015181840152602081019050611cbd565b60008484015250505050565b6000601f19601f8301169050919050565b6000611d0082611c9e565b611d0a8185611ca9565b9350611d1a818560208601611cba565b611d2381611ce4565b840191505092915050565b611d3781611c3b565b82525050565b60008115159050919050565b611d5281611d3d565b82525050565b60006080820190508181036000830152611d728187611cf5565b9050611d816020830186611d2e565b611d8e6040830185611d2e565b611d9b6060830184611d49565b95945050505050565b600073ffffffffffffffffffffffffffffffffffffffff82169050919050565b6000611dcf82611da4565b9050919050565b611ddf81611dc4565b82525050565b7f4e487b7100000000000000000000000000000000000000000000000000000000600052602160045260246000fd5b60038110611e2557611e24611de5565b5b50565b6000819050611e3682611e14565b919050565b6000611e4682611e28565b9050919050565b611e5681611e3b565b82525050565b6000608082019050611e716000830187611dd6565b611e7e6020830186611d2e565b611e8b6040830185611e4d565b611e986060830184611d2e565b95945050505050565b60008060408385031215611eb857611eb7611c31565b5b6000611ec685828601611c5c565b9250506020611ed785828601611c5c565b9150509250929050565b600080fd5b600080fd5b600080fd5b60008083601f840112611f0657611f05611ee1565b5b8235905067ffffffffffffffff811115611f2357611f22611ee6565b5b602083019150836020820283011115611f3f57611f3e611eeb565b5b9250929050565b60008060208385031215611f5d57611f5c611c31565b5b600083013567ffffffffffffffff811115611f7b57611f7a611c36565b5b611f8785828601611ef0565b92509250509250929050565b600081519050919050565b600082825260208201905092915050565b6000819050602082019050919050565b611fc881611dc4565b82525050565b6000611fda8383611fbf565b60208301905092915050565b6000602082019050919050565b6000611ffe82611f93565b6120088185611f9e565b935061201383611faf565b8060005b8381101561204457815161202b8882611fce565b975061203683611fe6565b925050600181019050612017565b5085935050505092915050565b600081519050919050565b600082825260208201905092915050565b6000819050602082019050919050565b61208681611c3b565b82525050565b6000612098838361207d565b60208301905092915050565b6000602082019050919050565b60006120bc82612051565b6120c6818561205c565b93506120d18361206d565b8060005b838110156121025781516120e9888261208c565b97506120f4836120a4565b9250506001810190506120d5565b5085935050505092915050565b600081519050919050565b600082825260208201905092915050565b6000819050602082019050919050565b61214481611e3b565b82525050565b6000612156838361213b565b60208301905092915050565b6000602082019050919050565b600061217a8261210f565b612184818561211a565b935061218f8361212b565b8060005b838110156121c05781516121a7888261214a565b97506121b283612162565b925050600181019050612193565b5085935050505092915050565b600060808201905081810360008301526121e78187611ff3565b905081810360208301526121fb81866120b1565b9050818103604083015261220f818561216f565b9050818103606083015261222381846120b1565b905095945050505050565b61223781611dc4565b811461224257600080fd5b50565b6000813590506122548161222e565b92915050565b6000806040838503121561227157612270611c31565b5b600061227f85828601611c5c565b925050602061229085828601612245565b9150509250929050565b60006020820190506122af6000830184611d49565b92915050565b60006020820190506122ca6000830184611d2e565b92915050565b6122d981611d3d565b81146122e457600080fd5b50565b6000813590506122f6816122d0565b92915050565b6000806040838503121561231357612312611c31565b5b600061232185828601611c5c565b9250506020612332858286016122e7565b9150509250929050565b600060408201905081810360008301526123568185611cf5565b90506123656020830184611d2e565b9392505050565b600081519050919050565b600082825260208201905092915050565b6000819050602082019050919050565b600082825260208201905092915050565b60006123b482611c9e565b6123be8185612398565b93506123ce818560208601611cba565b6123d781611ce4565b840191505092915050565b60006123ee83836123a9565b905092915050565b6000602082019050919050565b600061240e8261236c565b6124188185612377565b93508360208202850161242a85612388565b8060005b85811015612466578484038952815161244785826123e2565b9450612452836123f6565b925060208a0199505060018101905061242e565b50829750879550505050505092915050565b600060208201905081810360008301526124928184612403565b905092915050565b6000602082840312156124b0576124af611c31565b5b60006124be84828501612245565b91505092915050565b60006040820190506124dc6000830185611d2e565b6124e96020830184611d49565b9392505050565b60008083601f84011261250657612505611ee1565b5b8235905067ffffffffffffffff81111561252357612522611ee6565b5b60208301915083600182028301111561253f5761253e611eeb565b5b9250929050565b60008083601f84011261255c5761255b611ee1565b5b8235905067ffffffffffffffff81111561257957612578611ee6565b5b60208301915083602082028301111561259557612594611eeb565b5b9250929050565b600080600080600080608087890312156125b9576125b8611c31565b5b600087013567ffffffffffffffff8111156125d7576125d6611c36565b5b6125e389828a016124f0565b9650965050602087013567ffffffffffffffff81111561260657612605611c36565b5b61261289828a01612546565b9450945050604061262589828a01611c5c565b925050606061263689828a01611c5c565b9150509295509295509295565b6000602082019050818103600083015261265d81846120b1565b905092915050565b600060208201905061267a6000830184611dd6565b92915050565b7f4e487b7100000000000000000000000000000000000000000000000000000000600052602260045260246000fd5b600060028204905060018216806126c757607f821691505b6020821081036126da576126d9612680565b5b50919050565b7fe697a0e69588e79a84e68f90e6a1884944000000000000000000000000000000600082015250565b6000612716601183611ca9565b9150612721826126e0565b602082019050919050565b6000602082019050818103600083015261274581612709565b9050919050565b7fe8afa5e68f90e6a188e5b7b2e5a4b1e695880000000000000000000000000000600082015250565b6000612782601283611ca9565b915061278d8261274c565b602082019050919050565b600060208201905081810360008301526127b181612775565b9050919050565b7fe4bda0e4b88de59ca8e68a95e7a5a8e799bde5908de58d95e58685efbc8ce69760008201527fa0e68a95e7a5a8e69d83e9999000000000000000000000000000000000000000602082015250565b6000612814602d83611ca9565b915061281f826127b8565b604082019050919050565b6000602082019050818103600083015261284381612807565b9050919050565b7fe5bd93e5898de4b88de59ca8e68a95e7a5a8e69c89e69588e69c9fe586850000600082015250565b6000612880601e83611ca9565b915061288b8261284a565b602082019050919050565b600060208201905081810360008301526128af81612873565b9050919050565b7fe697a0e69588e79a84e68a95e7a5a8e98089e9a1b94944000000000000000000600082015250565b60006128ec601783611ca9565b91506128f7826128b6565b602082019050919050565b6000602082019050818103600083015261291b816128df565b9050919050565b7fe4bda0e5b7b2e5afb9e8afa5e68f90e6a188e68a95e7a5a8efbc8ce4b88de58f60008201527fafe9878de5a48de68a95e7a5a800000000000000000000000000000000000000602082015250565b600061297e602d83611ca9565b915061298982612922565b604082019050919050565b600060208201905081810360008301526129ad81612971565b9050919050565b7f4e487b7100000000000000000000000000000000000000000000000000000000600052601160045260246000fd5b60006129ee82611c3b565b91507fffffffffffffffffffffffffffffffffffffffffffffffffffffffffffffffff8203612a2057612a1f6129b4565b5b600182019050919050565b7f4e487b7100000000000000000000000000000000000000000000000000000000600052604160045260246000fd5b7f4e487b7100000000000000000000000000000000000000000000000000000000600052603260045260246000fd5b7fe697a0e69588e79a84e98089e9a1b94944000000000000000000000000000000600082015250565b6000612abf601183611ca9565b9150612aca82612a89565b602082019050919050565b60006020820190508181036000830152612aee81612ab2565b9050919050565b7fe697a0e69588e79a84e794b3e8afb7e4babae59cb0e59d800000000000000000600082015250565b6000612b2b601883611ca9565b9150612b3682612af5565b602082019050919050565b60006020820190508181036000830152612b5a81612b1e565b9050919050565b7fe8afa5e59cb0e59d80e5b7b2e59ca8e799bde5908de58d95e4b8adefbc8ce69760008201527fa0e99c80e9878de5a48de794b3e8afb700000000000000000000000000000000602082015250565b6000612bbd603083611ca9565b9150612bc882612b61565b604082019050919050565b60006020820190508181036000830152612bec81612bb0565b9050919050565b6000612bfe82611c3b565b9150612c0983611c3b565b9250828203905081811115612c2157612c206129b4565b5b92915050565b7fe682a8e5b7b2e69c89e5be85e5aea1e6a0b8e79a84e794b3e8afb7efbc8ce8af60008201527fb7e7ad89e5be85e5aea1e6a0b8e7bb93e69e9c00000000000000000000000000602082015250565b6000612c83603383611ca9565b9150612c8e82612c27565b604082019050919050565b60006020820190508181036000830152612cb281612c76565b9050919050565b6000612cc482611c3b565b9150612ccf83611c3b565b9250828201905080821115612ce757612ce66129b4565b5b92915050565b7fe4bb85e7b3bbe7bb9fe7aea1e79086e59198e58fafe689a7e8a18ce6938de4bd60008201527f9c00000000000000000000000000000000000000000000000000000000000000602082015250565b6000612d49602183611ca9565b9150612d5482612ced565b604082019050919050565b60006020820190508181036000830152612d7881612d3c565b9050919050565b7fe697a0e69588e79a84e794b3e8afb74944000000000000000000000000000000600082015250565b6000612db5601183611ca9565b9150612dc082612d7f565b602082019050919050565b60006020820190508181036000830152612de481612da8565b9050919050565b7fe8afa5e794b3e8afb7e5b7b2e8a2abe5aea1e6a0b8efbc8ce697a0e6b395e98760008201527f8de5a48de5aea1e6a0b800000000000000000000000000000000000000000000602082015250565b6000612e47602a83611ca9565b9150612e5282612deb565b604082019050919050565b60006020820190508181036000830152612e7681612e3a565b9050919050565b6000604082019050612e926000830185611e4d565b612e9f6020830184611d2e565b9392505050565b7fe68a95e7a5a8e5b09ae69caae7bb93e69d9fefbc8ce697a0e6b395e69fa5e8af60008201527fa2e88eb7e8839ce8808500000000000000000000000000000000000000000000602082015250565b6000612f02602a83611ca9565b9150612f0d82612ea6565b604082019050919050565b60006020820190508181036000830152612f3181612ef5565b9050919050565b7fe68a95e7a5a8e98089e9a1b9e4b88de5b091e4ba8e32e9a1b900000000000000600082015250565b6000612f6e601983611ca9565b9150612f7982612f38565b602082019050919050565b60006020820190508181036000830152612f9d81612f61565b9050919050565b7fe5bc80e5a78be697b6e997b4e99c80e697a9e4ba8ee7bb93e69d9fe697b6e99760008201527fb400000000000000000000000000000000000000000000000000000000000000602082015250565b6000613000602183611ca9565b915061300b82612fa4565b604082019050919050565b6000602082019050818103600083015261302f81612ff3565b9050919050565b7fe5bc80e5a78be697b6e997b4e4b88de58fafe697a9e4ba8ee5bd93e5898de69760008201527fb6e997b400000000000000000000000000000000000000000000000000000000602082015250565b6000613092602483611ca9565b915061309d82613036565b604082019050919050565b600060208201905081810360008301526130c181613085565b9050919050565b7fe68f90e6a188e6a087e9a298e4b88de58fafe4b8bae7a9ba0000000000000000600082015250565b60006130fe601883611ca9565b9150613109826130c8565b602082019050919050565b6000602082019050818103600083015261312d816130f1565b9050919050565b61313d82611ce4565b810181811067ffffffffffffffff8211171561315c5761315b612a2b565b5b80604052505050565b600061316f611c27565b905061317b8282613134565b919050565b600067ffffffffffffffff82111561319b5761319a612a2b565b5b602082029050602081019050919050565b600080fd5b600067ffffffffffffffff8211156131cc576131cb612a2b565b5b6131d582611ce4565b9050602081019050919050565b82818337600083830152505050565b60006132046131ff846131b1565b613165565b9050828152602081018484840111156132205761321f6131ac565b5b61322b8482856131e2565b509392505050565b600082601f83011261324857613247611ee1565b5b81356132588482602086016131f1565b91505092915050565b600061327461326f84613180565b613165565b9050808382526020820190506020840283018581111561329757613296611eeb565b5b835b818110156132de57803567ffffffffffffffff8111156132bc576132bb611ee1565b5b8086016132c98982613233565b85526020850194505050602081019050613299565b5050509392505050565b60006132f5368484613261565b905092915050565b60008190508160005260206000209050919050565b60006020601f8301049050919050565b600082821b905092915050565b60006008830261335f7fffffffffffffffffffffffffffffffffffffffffffffffffffffffffffffffff82613322565b6133698683613322565b95508019841693508086168417925050509392505050565b6000819050919050565b60006133a66133a161339c84611c3b565b613381565b611c3b565b9050919050565b6000819050919050565b6133c08361338b565b6133d46133cc826133ad565b84845461332f565b825550505050565b600090565b6133e96133dc565b6133f48184846133b7565b505050565b5b818110156134185761340d6000826133e1565b6001810190506133fa565b5050565b601f82111561345d5761342e816132fd565b61343784613312565b81016020851015613446578190505b61345a61345285613312565b8301826133f9565b50505b505050565b600082821c905092915050565b600061348060001984600802613462565b1980831691505092915050565b6000613499838361346f565b9150826002028217905092915050565b6134b282611c9e565b67ffffffffffffffff8111156134cb576134ca612a2b565b5b6134d582546126af565b6134e082828561341c565b600060209050601f8311600181146135135760008415613501578287015190505b61350b858261348d565b865550613573565b601f198416613521866132fd565b60005b8281101561354957848901518255600182019150602085019450602081019050613524565b868310156135665784890151613562601f89168261346f565b8355505b6001600288020188555050505b505050505050565b7fe697a0e69588e79a84e98089e6b091e59cb0e59d800000000000000000000000600082015250565b60006135b1601583611ca9565b91506135bc8261357b565b602082019050919050565b600060208201905081810360008301526135e0816135a4565b905091905056fea26469706673582212208864eb20c5b79e8e0808d42ffddc6761ed422eee61a5daca8e65dc85d93aa64164736f6c63430008100033",
  "immutableReferences": {
    "61": [
      {
        "length": 32,
        "start": 4095
      },
      {
        "length": 32,
        "start": 5700
      },
      {
        "length": 32,
        "start": 6427
      },
      {
        "length": 32,
        "start": 6923
      }
    ]
  },
  "source": "// SPDX-License-Identifier: MIT\r\npragma solidity ^0.8.16;\r\n\r\ncontract VoteSystem {\r\n    // 1. \r\n    address public immutable admin;\r\n\r\n    // unicode\r\n    error ProposalError(string reason);\r\n    error WhitelistError(string reason);\r\n    error VoteError(string reason);\r\n    error RegisterError(string reason);\r\n\r\n    // 2. \r\n    mapping(address => bool) public voterWhitelist;\r\n\r\n    // 3. \r\n    struct VotingProposal {\r\n        string title;          // \r\n        string[] options;      // 2\r\n        uint startTime;        // Unix\r\n        uint endTime;          // Unix\r\n        bool isActive;         // \r\n    }\r\n\r\n    // 4. ID\r\n    mapping(uint => VotingProposal) public proposals;\r\n    uint public proposalCount;\r\n\r\n    // 5. ID+\r\n    mapping(uint => mapping(address => bool)) public hasVoted;\r\n\r\n    // 6. ID+ID\r\n    mapping(uint => mapping(uint => uint)) public optionVoteCounts;\r\n\r\n    // 7. \r\n    enum ApplyStatus {\r\n        Pending,    // \r\n        Approved,   // \r\n        Rejected    // \r\n    }\r\n\r\n    // 8. \r\n    struct RegisterApply {\r\n        address applicantAddress;  // \r\n        uint applyTime;           // \r\n        ApplyStatus status;        // \r\n        uint auditTime;            // 0\r\n    }\r\n\r\n    // 9. ID\r\n    mapping(uint => RegisterApply) public registerApplies;\r\n    uint public registerApplyCount;\r\n\r\n    // 10. ID\r\n    mapping(address => uint) public addressToApplyId;\r\n\r\n    // 11. \r\n    event RegisterApplySubmitted(uint indexed applyId, address indexed applicant, uint applyTime);\r\n    event RegisterApplyAudited(uint indexed applyId, address indexed applicant, ApplyStatus status, uint auditTime);\r\n\r\n    // \r\n    modifier onlyAdmin() {\r\n        if (msg.sender != admin) {\r\n            // unicode\r\n            revert ProposalError(unicode\"\");\r\n        }\r\n        _;\r\n    }\r\n\r\n    // \r\n    constructor() {\r\n        admin = msg.sender;\r\n    }\r\n\r\n    // 1\r\n    function addVoterToWhitelist(address _voter) external onlyAdmin {\r\n        if (_voter == address(0)) {\r\n            // unicode\r\n            revert WhitelistError(unicode\"\");\r\n        }\r\n        voterWhitelist[_voter] = true;\r\n    }\r\n\r\n    // 2\r\n    function createVotingProposal(\r\n        string calldata _title,\r\n        string[] calldata _options,\r\n        uint _startTime,\r\n        uint _endTime\r\n    ) external onlyAdmin {\r\n        // 2\r\n        if (_options.length < 2) {\r\n            revert ProposalError(unicode\"2\");\r\n        }\r\n        // \r\n        if (_startTime >= _endTime) {\r\n            revert ProposalError(unicode\"\");\r\n        }\r\n        // \r\n        if (_startTime < block.timestamp) {\r\n            revert ProposalError(unicode\"\");\r\n        }\r\n        // \r\n        if (bytes(_title).length == 0) {\r\n            revert ProposalError(unicode\"\");\r\n        }\r\n\r\n        // \r\n        proposals[proposalCount] = VotingProposal({\r\n            title: _title,\r\n            options: _options,\r\n            startTime: _startTime,\r\n            endTime: _endTime,\r\n            isActive: true\r\n        });\r\n\r\n        // +1\r\n        proposalCount++;\r\n    }\r\n\r\n    // 3\r\n    function castVote(uint _proposalId, uint _optionId) external {\r\n        // 1\r\n        if (_proposalId >= proposalCount) {\r\n            revert VoteError(unicode\"ID\");\r\n        }\r\n        VotingProposal storage proposal = proposals[_proposalId];\r\n        if (!proposal.isActive) {\r\n            revert VoteError(unicode\"\");\r\n        }\r\n\r\n        // 2\r\n        if (!voterWhitelist[msg.sender]) {\r\n            revert VoteError(unicode\"\");\r\n        }\r\n\r\n        // 3\r\n        if (block.timestamp < proposal.startTime || block.timestamp > proposal.endTime) {\r\n            revert VoteError(unicode\"\");\r\n        }\r\n\r\n        // 4ID\r\n        if (_optionId >= proposal.options.length) {\r\n            revert VoteError(unicode\"ID\");\r\n        }\r\n\r\n        // 5\r\n        if (hasVoted[_proposalId][msg.sender]) {\r\n            revert VoteError(unicode\"\");\r\n        }\r\n\r\n        // \r\n        hasVoted[_proposalId][msg.sender] = true;\r\n        optionVoteCounts[_proposalId][_optionId]++;\r\n    }\r\n\r\n    // 4\r\n    function getProposalOptions(uint _proposalId) external view returns (string[] memory) {\r\n        if (_proposalId >= proposalCount) {\r\n            revert VoteError(unicode\"ID\");\r\n        }\r\n        return proposals[_proposalId].options;\r\n    }\r\n\r\n    // 5\r\n    function getOptionVoteCount(uint _proposalId, uint _optionId) external view returns (uint) {\r\n        if (_proposalId >= proposalCount) {\r\n            revert VoteError(unicode\"ID\");\r\n        }\r\n        if (_optionId >= proposals[_proposalId].options.length) {\r\n            revert VoteError(unicode\"ID\");\r\n        }\r\n        return optionVoteCounts[_proposalId][_optionId];\r\n    }\r\n\r\n    // 6\r\n    function getProposalWinner(uint _proposalId) external view returns (string memory, uint) {\r\n        if (_proposalId >= proposalCount) {\r\n            revert VoteError(unicode\"ID\");\r\n        }\r\n        VotingProposal storage proposal = proposals[_proposalId];\r\n        if (block.timestamp <= proposal.endTime) {\r\n            revert VoteError(unicode\"\");\r\n        }\r\n\r\n        uint maxVotes = 0;\r\n        uint winnerOptionId = 0;\r\n\r\n        // \r\n        for (uint i = 0; i < proposal.options.length; i++) {\r\n            uint voteCount = optionVoteCounts[_proposalId][i];\r\n            if (voteCount > maxVotes) {\r\n                maxVotes = voteCount;\r\n                winnerOptionId = i;\r\n            }\r\n        }\r\n\r\n        return (proposal.options[winnerOptionId], maxVotes);\r\n    }\r\n\r\n    // 7\r\n    function submitRegisterApply() external {\r\n        address applicant = msg.sender;\r\n        \r\n        // 1\r\n        if (applicant == address(0)) {\r\n            revert RegisterError(unicode\"\");\r\n        }\r\n        \r\n        // 2\r\n        if (voterWhitelist[applicant]) {\r\n            revert RegisterError(unicode\"\");\r\n        }\r\n        \r\n        // 3\r\n        uint existingApplyId = addressToApplyId[applicant];\r\n        if (existingApplyId > 0) {\r\n            RegisterApply storage existingRegisterApply = registerApplies[existingApplyId - 1];\r\n            if (existingRegisterApply.status == ApplyStatus.Pending) {\r\n                revert RegisterError(unicode\"\");\r\n            }\r\n        }\r\n        \r\n        // \r\n        registerApplies[registerApplyCount] = RegisterApply({\r\n            applicantAddress: applicant,\r\n            applyTime: block.timestamp,\r\n            status: ApplyStatus.Pending,\r\n            auditTime: 0\r\n        });\r\n        \r\n        // IDID0+1\r\n        addressToApplyId[applicant] = registerApplyCount + 1;\r\n        \r\n        // \r\n        emit RegisterApplySubmitted(registerApplyCount, applicant, block.timestamp);\r\n        \r\n        // +1\r\n        registerApplyCount++;\r\n    }\r\n\r\n    // 8\r\n    function auditRegisterApply(uint _applyId, bool _approve) external onlyAdmin {\r\n        // 1ID\r\n        if (_applyId >= registerApplyCount) {\r\n            revert RegisterError(unicode\"ID\");\r\n        }\r\n        \r\n        RegisterApply storage registerApply = registerApplies[_applyId];\r\n        \r\n        // 2\r\n        if (registerApply.status != ApplyStatus.Pending) {\r\n            revert RegisterError(unicode\"\");\r\n        }\r\n        \r\n        // \r\n        if (_approve) {\r\n            registerApply.status = ApplyStatus.Approved;\r\n            // \r\n            voterWhitelist[registerApply.applicantAddress] = true;\r\n        } else {\r\n            registerApply.status = ApplyStatus.Rejected;\r\n        }\r\n        \r\n        registerApply.auditTime = block.timestamp;\r\n        \r\n        // \r\n        emit RegisterApplyAudited(_applyId, registerApply.applicantAddress, registerApply.status, block.timestamp);\r\n    }\r\n\r\n    // 9ID\r\n    function getAllRegisterApplyIds() external view returns (uint[] memory) {\r\n        uint[] memory applyIds = new uint[](registerApplyCount);\r\n        for (uint i = 0; i < registerApplyCount; i++) {\r\n            applyIds[i] = i;\r\n        }\r\n        return applyIds;\r\n    }\r\n\r\n    // 10ID\r\n    function getUserApplyId(address _user) external view returns (uint, bool) {\r\n        uint applyId = addressToApplyId[_user];\r\n        if (applyId == 0) {\r\n            return (0, false);\r\n        }\r\n        return (applyId - 1, true);\r\n    }\r\n\r\n    // 11\r\n    function getRegisterApplies(uint[] calldata _applyIds) external view returns (\r\n        address[] memory applicants,\r\n        uint[] memory applyTimes,\r\n        ApplyStatus[] memory statuses,\r\n        uint[] memory auditTimes\r\n    ) {\r\n        uint length = _applyIds.length;\r\n        applicants = new address[](length);\r\n        applyTimes = new uint[](length);\r\n        statuses = new ApplyStatus[](length);\r\n        auditTimes = new uint[](length);\r\n        \r\n        for (uint i = 0; i < length; i++) {\r\n            if (_applyIds[i] >= registerApplyCount) {\r\n                continue; // ID\r\n            }\r\n            RegisterApply storage registerApply = registerApplies[_applyIds[i]];\r\n            applicants[i] = registerApply.applicantAddress;\r\n            applyTimes[i] = registerApply.applyTime;\r\n            statuses[i] = registerApply.status;\r\n            auditTimes[i] = registerApply.auditTime;\r\n        }\r\n    }\r\n}",
  "sourcePath": "D:\\abishe\\vote-system\\contracts\\Vote.sol",
  "compiler": {
    "name": "solc",
    "version": "0.8.16+commit.07a7930e.Emscripten.clang"
  },
  "schemaVersion": "3.4.11",
  "updatedAt": "2026-01-03T14:02:46.388Z",
  "devdoc": {
    "kind": "dev",
    "methods": {},
    "version": 1
  },
  "userdoc": {
    "kind": "user",
    "methods": {},
    "version": 1
  }
}